{
  "contractName": "Election",
  "abi": [
    {
      "inputs": [
        {
          "internalType": "address",
          "name": "",
          "type": "address"
        }
      ],
      "name": "a2id",
      "outputs": [
        {
          "internalType": "uint256",
          "name": "",
          "type": "uint256"
        }
      ],
      "stateMutability": "view",
      "type": "function",
      "constant": true
    },
    {
      "inputs": [],
      "name": "admin",
      "outputs": [
        {
          "internalType": "bool",
          "name": "",
          "type": "bool"
        }
      ],
      "stateMutability": "view",
      "type": "function",
      "constant": true
    },
    {
      "inputs": [
        {
          "internalType": "uint256",
          "name": "",
          "type": "uint256"
        }
      ],
      "name": "candidates",
      "outputs": [
        {
          "internalType": "uint256",
          "name": "id",
          "type": "uint256"
        },
        {
          "internalType": "string",
          "name": "name",
          "type": "string"
        },
        {
          "internalType": "uint256",
          "name": "age",
          "type": "uint256"
        },
        {
          "internalType": "string",
          "name": "party",
          "type": "string"
        },
        {
          "internalType": "string",
          "name": "qualification",
          "type": "string"
        },
        {
          "internalType": "uint256",
          "name": "voteCount",
          "type": "uint256"
        },
        {
          "internalType": "string",
          "name": "ipfsHash",
          "type": "string"
        }
      ],
      "stateMutability": "view",
      "type": "function",
      "constant": true
    },
    {
      "inputs": [],
      "name": "candidatesCount",
      "outputs": [
        {
          "internalType": "uint256",
          "name": "",
          "type": "uint256"
        }
      ],
      "stateMutability": "view",
      "type": "function",
      "constant": true
    },
    {
      "inputs": [],
      "name": "currVoter",
      "outputs": [
        {
          "internalType": "address",
          "name": "",
          "type": "address"
        }
      ],
      "stateMutability": "view",
      "type": "function",
      "constant": true
    },
    {
      "inputs": [],
      "name": "electionState",
      "outputs": [
        {
          "internalType": "uint256",
          "name": "",
          "type": "uint256"
        }
      ],
      "stateMutability": "view",
      "type": "function",
      "constant": true
    },
    {
      "inputs": [
        {
          "internalType": "address",
          "name": "",
          "type": "address"
        }
      ],
      "name": "register",
      "outputs": [
        {
          "internalType": "address",
          "name": "uid",
          "type": "address"
        },
        {
          "internalType": "string",
          "name": "aadhar",
          "type": "string"
        },
        {
          "internalType": "string",
          "name": "password",
          "type": "string"
        },
        {
          "internalType": "bool",
          "name": "verified",
          "type": "bool"
        }
      ],
      "stateMutability": "view",
      "type": "function",
      "constant": true
    },
    {
      "inputs": [
        {
          "internalType": "uint256",
          "name": "",
          "type": "uint256"
        }
      ],
      "name": "registertemp",
      "outputs": [
        {
          "internalType": "address",
          "name": "uid",
          "type": "address"
        },
        {
          "internalType": "string",
          "name": "aadhar",
          "type": "string"
        },
        {
          "internalType": "string",
          "name": "password",
          "type": "string"
        },
        {
          "internalType": "bool",
          "name": "verified",
          "type": "bool"
        }
      ],
      "stateMutability": "view",
      "type": "function",
      "constant": true
    },
    {
      "inputs": [],
      "name": "votedCount",
      "outputs": [
        {
          "internalType": "uint256",
          "name": "",
          "type": "uint256"
        }
      ],
      "stateMutability": "view",
      "type": "function",
      "constant": true
    },
    {
      "inputs": [
        {
          "internalType": "address",
          "name": "",
          "type": "address"
        }
      ],
      "name": "voters",
      "outputs": [
        {
          "internalType": "bool",
          "name": "",
          "type": "bool"
        }
      ],
      "stateMutability": "view",
      "type": "function",
      "constant": true
    },
    {
      "inputs": [],
      "name": "votersCount",
      "outputs": [
        {
          "internalType": "uint256",
          "name": "",
          "type": "uint256"
        }
      ],
      "stateMutability": "view",
      "type": "function",
      "constant": true
    },
    {
      "inputs": [],
      "name": "reset",
      "outputs": [],
      "stateMutability": "nonpayable",
      "type": "function"
    },
    {
      "inputs": [
        {
          "internalType": "address",
          "name": "_address",
          "type": "address"
        }
      ],
      "name": "SetVoter",
      "outputs": [],
      "stateMutability": "nonpayable",
      "type": "function"
    },
    {
      "inputs": [
        {
          "internalType": "address",
          "name": "_address",
          "type": "address"
        }
      ],
      "name": "verify",
      "outputs": [],
      "stateMutability": "nonpayable",
      "type": "function"
    },
    {
      "inputs": [],
      "name": "verifyall",
      "outputs": [],
      "stateMutability": "nonpayable",
      "type": "function"
    },
    {
      "inputs": [],
      "name": "getUsername",
      "outputs": [
        {
          "internalType": "string",
          "name": "status",
          "type": "string"
        }
      ],
      "stateMutability": "nonpayable",
      "type": "function"
    },
    {
      "inputs": [],
      "name": "getPassword",
      "outputs": [
        {
          "internalType": "string",
          "name": "status",
          "type": "string"
        }
      ],
      "stateMutability": "nonpayable",
      "type": "function"
    },
    {
      "inputs": [
        {
          "internalType": "bool",
          "name": "_admin",
          "type": "bool"
        }
      ],
      "name": "setAdmin",
      "outputs": [],
      "stateMutability": "nonpayable",
      "type": "function"
    },
    {
      "inputs": [
        {
          "internalType": "string",
          "name": "_name",
          "type": "string"
        },
        {
          "internalType": "uint256",
          "name": "_age",
          "type": "uint256"
        },
        {
          "internalType": "string",
          "name": "_party",
          "type": "string"
        },
        {
          "internalType": "string",
          "name": "_qualification",
          "type": "string"
        },
        {
          "internalType": "string",
          "name": "_image",
          "type": "string"
        }
      ],
      "name": "addCandidate",
      "outputs": [
        {
          "internalType": "string",
          "name": "status",
          "type": "string"
        }
      ],
      "stateMutability": "nonpayable",
      "type": "function"
    },
    {
      "inputs": [
        {
          "internalType": "address",
          "name": "_address",
          "type": "address"
        },
        {
          "internalType": "string",
          "name": "_aadhar",
          "type": "string"
        },
        {
          "internalType": "string",
          "name": "_password",
          "type": "string"
        }
      ],
      "name": "registration",
      "outputs": [],
      "stateMutability": "nonpayable",
      "type": "function"
    },
    {
      "inputs": [
        {
          "internalType": "uint256",
          "name": "_state",
          "type": "uint256"
        }
      ],
      "name": "changeState",
      "outputs": [],
      "stateMutability": "nonpayable",
      "type": "function"
    },
    {
      "inputs": [
        {
          "internalType": "uint256",
          "name": "_candidateId",
          "type": "uint256"
        },
        {
          "internalType": "address",
          "name": "_voter",
          "type": "address"
        }
      ],
      "name": "vote",
      "outputs": [],
      "stateMutability": "nonpayable",
      "type": "function"
    }
  ],
  "bytecode": "0x608060405260006005556000600655600060075560016008556040518060400160405280600981526020017f766564616e746736380000000000000000000000000000000000000000000000815250600990816200005e91906200034f565b506040518060400160405280600581526020017f696e646961000000000000000000000000000000000000000000000000000000815250600a9081620000a591906200034f565b506000600b60006101000a81548160ff021916908315150217905550348015620000ce57600080fd5b5062000436565b600081519050919050565b7f4e487b7100000000000000000000000000000000000000000000000000000000600052604160045260246000fd5b7f4e487b7100000000000000000000000000000000000000000000000000000000600052602260045260246000fd5b600060028204905060018216806200015757607f821691505b6020821081036200016d576200016c6200010f565b5b50919050565b60008190508160005260206000209050919050565b60006020601f8301049050919050565b600082821b905092915050565b600060088302620001d77fffffffffffffffffffffffffffffffffffffffffffffffffffffffffffffffff8262000198565b620001e3868362000198565b95508019841693508086168417925050509392505050565b6000819050919050565b6000819050919050565b6000620002306200022a6200022484620001fb565b62000205565b620001fb565b9050919050565b6000819050919050565b6200024c836200020f565b620002646200025b8262000237565b848454620001a5565b825550505050565b600090565b6200027b6200026c565b6200028881848462000241565b505050565b5b81811015620002b057620002a460008262000271565b6001810190506200028e565b5050565b601f821115620002ff57620002c98162000173565b620002d48462000188565b81016020851015620002e4578190505b620002fc620002f38562000188565b8301826200028d565b50505b505050565b600082821c905092915050565b6000620003246000198460080262000304565b1980831691505092915050565b60006200033f838362000311565b9150826002028217905092915050565b6200035a82620000d5565b67ffffffffffffffff811115620003765762000375620000e0565b5b6200038282546200013e565b6200038f828285620002b4565b600060209050601f831160018114620003c75760008415620003b2578287015190505b620003be858262000331565b8655506200042e565b601f198416620003d78662000173565b60005b828110156200040157848901518255600182019150602085019450602081019050620003da565b868310156200042157848901516200041d601f89168262000311565b8355505b6001600288020188555050505b505050505050565b611bdb80620004466000396000f3fe608060405234801561001057600080fd5b50600436106101425760003560e01c8063982da7c4116100b8578063b95d78281161007c578063b95d78281461036c578063c6ff12741461039f578063cc8e2394146103bb578063d826f88f146103d9578063f0232d0a146103e3578063f851a4401461040157610142565b8063982da7c4146102b657806398c07938146102d2578063a3ec138d146102f0578063af36cdc214610320578063b00741cb1461035057610142565b806351073ad01161010a57806351073ad0146102085780635e3a950f1461022457806362546f601461025457806363a9c3d714610272578063681f3e6d1461028e5780637ea1bbf5146102ac57610142565b806302d947ef146101475780632280043d146101635780632d35a8a2146101815780633477ee2e1461019f5780634420e486146101d5575b600080fd5b610161600480360381019061015c919061128f565b61041f565b005b61016b610516565b60405161017891906112de565b60405180910390f35b61018961051c565b60405161019691906112de565b60405180910390f35b6101b960048036038101906101b491906112f9565b610522565b6040516101cc97969594939291906113bf565b60405180910390f35b6101ef60048036038101906101ea919061144a565b610784565b6040516101ff94939291906114a1565b60405180910390f35b610222600480360381019061021d9190611629565b6108f1565b005b61023e600480360381019061023991906116b4565b610b47565b60405161024b919061179f565b60405180910390f35b61025c610c75565b60405161026991906117c1565b60405180910390f35b61028c6004803603810190610287919061144a565b610c9b565b005b610296610d65565b6040516102a3919061179f565b60405180910390f35b6102b4610df7565b005b6102d060048036038101906102cb9190611808565b610edb565b005b6102da610ef8565b6040516102e791906112de565b60405180910390f35b61030a6004803603810190610305919061144a565b610efe565b6040516103179190611835565b60405180910390f35b61033a6004803603810190610335919061144a565b610f1e565b60405161034791906112de565b60405180910390f35b61036a600480360381019061036591906112f9565b610f36565b005b610386600480360381019061038191906112f9565b610f4e565b60405161039694939291906114a1565b60405180910390f35b6103b960048036038101906103b4919061144a565b6110bb565b005b6103c36110ff565b6040516103d0919061179f565b60405180910390f35b6103e1611191565b005b6103eb6111ce565b6040516103f891906112de565b60405180910390f35b6104096111d4565b6040516104169190611835565b60405180910390f35b600360008273ffffffffffffffffffffffffffffffffffffffff1673ffffffffffffffffffffffffffffffffffffffff16815260200190815260200160002060009054906101000a900460ff161561047657600080fd5b600760008154809291906104899061187f565b91905055506001600360008373ffffffffffffffffffffffffffffffffffffffff1673ffffffffffffffffffffffffffffffffffffffff16815260200190815260200160002060006101000a81548160ff02191690831515021790555060046000838152602001908152602001600020600501600081548092919061050d9061187f565b91905055505050565b60085481565b60055481565b600460205280600052604060002060009150905080600001549080600101805461054b906118f6565b80601f0160208091040260200160405190810160405280929190818152602001828054610577906118f6565b80156105c45780601f10610599576101008083540402835291602001916105c4565b820191906000526020600020905b8154815290600101906020018083116105a757829003601f168201915b5050505050908060020154908060030180546105df906118f6565b80601f016020809104026020016040519081016040528092919081815260200182805461060b906118f6565b80156106585780601f1061062d57610100808354040283529160200191610658565b820191906000526020600020905b81548152906001019060200180831161063b57829003601f168201915b50505050509080600401805461066d906118f6565b80601f0160208091040260200160405190810160405280929190818152602001828054610699906118f6565b80156106e65780601f106106bb576101008083540402835291602001916106e6565b820191906000526020600020905b8154815290600101906020018083116106c957829003601f168201915b505050505090806005015490806006018054610701906118f6565b80601f016020809104026020016040519081016040528092919081815260200182805461072d906118f6565b801561077a5780601f1061074f5761010080835404028352916020019161077a565b820191906000526020600020905b81548152906001019060200180831161075d57829003601f168201915b5050505050905087565b60006020528060005260406000206000915090508060000160009054906101000a900473ffffffffffffffffffffffffffffffffffffffff16908060010180546107cd906118f6565b80601f01602080910402602001604051908101604052809291908181526020018280546107f9906118f6565b80156108465780601f1061081b57610100808354040283529160200191610846565b820191906000526020600020905b81548152906001019060200180831161082957829003601f168201915b50505050509080600201805461085b906118f6565b80601f0160208091040260200160405190810160405280929190818152602001828054610887906118f6565b80156108d45780601f106108a9576101008083540402835291602001916108d4565b820191906000526020600020905b8154815290600101906020018083116108b757829003601f168201915b5050505050908060030160009054906101000a900460ff16905084565b600660008154809291906109049061187f565b9190505550600654600260008573ffffffffffffffffffffffffffffffffffffffff1673ffffffffffffffffffffffffffffffffffffffff1681526020019081526020016000208190555060405180608001604052808473ffffffffffffffffffffffffffffffffffffffff1681526020018381526020018281526020016000151581525060016000600654815260200190815260200160002060008201518160000160006101000a81548173ffffffffffffffffffffffffffffffffffffffff021916908373ffffffffffffffffffffffffffffffffffffffff16021790555060208201518160010190816109fa9190611ad3565b506040820151816002019081610a109190611ad3565b5060608201518160030160006101000a81548160ff02191690831515021790555090505060405180608001604052808473ffffffffffffffffffffffffffffffffffffffff168152602001838152602001828152602001600015158152506000808573ffffffffffffffffffffffffffffffffffffffff1673ffffffffffffffffffffffffffffffffffffffff16815260200190815260200160002060008201518160000160006101000a81548173ffffffffffffffffffffffffffffffffffffffff021916908373ffffffffffffffffffffffffffffffffffffffff1602179055506020820151816001019081610b089190611ad3565b506040820151816002019081610b1e9190611ad3565b5060608201518160030160006101000a81548160ff021916908315150217905550905050505050565b6060600160085414610b5857600080fd5b60056000815480929190610b6b9061187f565b91905055506040518060e0016040528060055481526020018781526020018681526020018581526020018481526020016000815260200183815250600460006005548152602001908152602001600020600082015181600001556020820151816001019081610bda9190611ad3565b50604082015181600201556060820151816003019081610bfa9190611ad3565b506080820151816004019081610c109190611ad3565b5060a0820151816005015560c0820151816006019081610c309190611ad3565b509050506040518060400160405280600681526020017f7375636573730000000000000000000000000000000000000000000000000000815250905095945050505050565b600b60019054906101000a900473ffffffffffffffffffffffffffffffffffffffff1681565b60016000808373ffffffffffffffffffffffffffffffffffffffff1673ffffffffffffffffffffffffffffffffffffffff16815260200190815260200160002060030160006101000a81548160ff0219169083151502179055506001806000600260008573ffffffffffffffffffffffffffffffffffffffff1673ffffffffffffffffffffffffffffffffffffffff16815260200190815260200160002054815260200190815260200160002060030160006101000a81548160ff02191690831515021790555050565b606060098054610d74906118f6565b80601f0160208091040260200160405190810160405280929190818152602001828054610da0906118f6565b8015610ded5780601f10610dc257610100808354040283529160200191610ded565b820191906000526020600020905b815481529060010190602001808311610dd057829003601f168201915b5050505050905090565b6000600190505b6006548111610ed857600180600083815260200190815260200160002060030160006101000a81548160ff02191690831515021790555060016000806001600085815260200190815260200160002060000160009054906101000a900473ffffffffffffffffffffffffffffffffffffffff1673ffffffffffffffffffffffffffffffffffffffff1673ffffffffffffffffffffffffffffffffffffffff16815260200190815260200160002060030160006101000a81548160ff0219169083151502179055508080610ed09061187f565b915050610dfe565b50565b80600b60006101000a81548160ff02191690831515021790555050565b60065481565b60036020528060005260406000206000915054906101000a900460ff1681565b60026020528060005260406000206000915090505481565b6008548111610f4457600080fd5b8060088190555050565b60016020528060005260406000206000915090508060000160009054906101000a900473ffffffffffffffffffffffffffffffffffffffff1690806001018054610f97906118f6565b80601f0160208091040260200160405190810160405280929190818152602001828054610fc3906118f6565b80156110105780601f10610fe557610100808354040283529160200191611010565b820191906000526020600020905b815481529060010190602001808311610ff357829003601f168201915b505050505090806002018054611025906118f6565b80601f0160208091040260200160405190810160405280929190818152602001828054611051906118f6565b801561109e5780601f106110735761010080835404028352916020019161109e565b820191906000526020600020905b81548152906001019060200180831161108157829003601f168201915b5050505050908060030160009054906101000a900460ff16905084565b80600b60016101000a81548173ffffffffffffffffffffffffffffffffffffffff021916908373ffffffffffffffffffffffffffffffffffffffff16021790555050565b6060600a805461110e906118f6565b80601f016020809104026020016040519081016040528092919081815260200182805461113a906118f6565b80156111875780601f1061115c57610100808354040283529160200191611187565b820191906000526020600020905b81548152906001019060200180831161116a57829003601f168201915b5050505050905090565b60006005819055506000600681905550600060078190555060016008819055506000600b60006101000a81548160ff021916908315150217905550565b60075481565b600b60009054906101000a900460ff1681565b6000604051905090565b600080fd5b600080fd5b6000819050919050565b61120e816111fb565b811461121957600080fd5b50565b60008135905061122b81611205565b92915050565b600073ffffffffffffffffffffffffffffffffffffffff82169050919050565b600061125c82611231565b9050919050565b61126c81611251565b811461127757600080fd5b50565b60008135905061128981611263565b92915050565b600080604083850312156112a6576112a56111f1565b5b60006112b48582860161121c565b92505060206112c58582860161127a565b9150509250929050565b6112d8816111fb565b82525050565b60006020820190506112f360008301846112cf565b92915050565b60006020828403121561130f5761130e6111f1565b5b600061131d8482850161121c565b91505092915050565b600081519050919050565b600082825260208201905092915050565b60005b83811015611360578082015181840152602081019050611345565b8381111561136f576000848401525b50505050565b6000601f19601f8301169050919050565b600061139182611326565b61139b8185611331565b93506113ab818560208601611342565b6113b481611375565b840191505092915050565b600060e0820190506113d4600083018a6112cf565b81810360208301526113e68189611386565b90506113f560408301886112cf565b81810360608301526114078187611386565b9050818103608083015261141b8186611386565b905061142a60a08301856112cf565b81810360c083015261143c8184611386565b905098975050505050505050565b6000602082840312156114605761145f6111f1565b5b600061146e8482850161127a565b91505092915050565b61148081611251565b82525050565b60008115159050919050565b61149b81611486565b82525050565b60006080820190506114b66000830187611477565b81810360208301526114c88186611386565b905081810360408301526114dc8185611386565b90506114eb6060830184611492565b95945050505050565b600080fd5b600080fd5b7f4e487b7100000000000000000000000000000000000000000000000000000000600052604160045260246000fd5b61153682611375565b810181811067ffffffffffffffff82111715611555576115546114fe565b5b80604052505050565b60006115686111e7565b9050611574828261152d565b919050565b600067ffffffffffffffff821115611594576115936114fe565b5b61159d82611375565b9050602081019050919050565b82818337600083830152505050565b60006115cc6115c784611579565b61155e565b9050828152602081018484840111156115e8576115e76114f9565b5b6115f38482856115aa565b509392505050565b600082601f8301126116105761160f6114f4565b5b81356116208482602086016115b9565b91505092915050565b600080600060608486031215611642576116416111f1565b5b60006116508682870161127a565b935050602084013567ffffffffffffffff811115611671576116706111f6565b5b61167d868287016115fb565b925050604084013567ffffffffffffffff81111561169e5761169d6111f6565b5b6116aa868287016115fb565b9150509250925092565b600080600080600060a086880312156116d0576116cf6111f1565b5b600086013567ffffffffffffffff8111156116ee576116ed6111f6565b5b6116fa888289016115fb565b955050602061170b8882890161121c565b945050604086013567ffffffffffffffff81111561172c5761172b6111f6565b5b611738888289016115fb565b935050606086013567ffffffffffffffff811115611759576117586111f6565b5b611765888289016115fb565b925050608086013567ffffffffffffffff811115611786576117856111f6565b5b611792888289016115fb565b9150509295509295909350565b600060208201905081810360008301526117b98184611386565b905092915050565b60006020820190506117d66000830184611477565b92915050565b6117e581611486565b81146117f057600080fd5b50565b600081359050611802816117dc565b92915050565b60006020828403121561181e5761181d6111f1565b5b600061182c848285016117f3565b91505092915050565b600060208201905061184a6000830184611492565b92915050565b7f4e487b7100000000000000000000000000000000000000000000000000000000600052601160045260246000fd5b600061188a826111fb565b91507fffffffffffffffffffffffffffffffffffffffffffffffffffffffffffffffff82036118bc576118bb611850565b5b600182019050919050565b7f4e487b7100000000000000000000000000000000000000000000000000000000600052602260045260246000fd5b6000600282049050600182168061190e57607f821691505b602082108103611921576119206118c7565b5b50919050565b60008190508160005260206000209050919050565b60006020601f8301049050919050565b600082821b905092915050565b6000600883026119897fffffffffffffffffffffffffffffffffffffffffffffffffffffffffffffffff8261194c565b611993868361194c565b95508019841693508086168417925050509392505050565b6000819050919050565b60006119d06119cb6119c6846111fb565b6119ab565b6111fb565b9050919050565b6000819050919050565b6119ea836119b5565b6119fe6119f6826119d7565b848454611959565b825550505050565b600090565b611a13611a06565b611a1e8184846119e1565b505050565b5b81811015611a4257611a37600082611a0b565b600181019050611a24565b5050565b601f821115611a8757611a5881611927565b611a618461193c565b81016020851015611a70578190505b611a84611a7c8561193c565b830182611a23565b50505b505050565b600082821c905092915050565b6000611aaa60001984600802611a8c565b1980831691505092915050565b6000611ac38383611a99565b9150826002028217905092915050565b611adc82611326565b67ffffffffffffffff811115611af557611af46114fe565b5b611aff82546118f6565b611b0a828285611a46565b600060209050601f831160018114611b3d5760008415611b2b578287015190505b611b358582611ab7565b865550611b9d565b601f198416611b4b86611927565b60005b82811015611b7357848901518255600182019150602085019450602081019050611b4e565b86831015611b905784890151611b8c601f891682611a99565b8355505b6001600288020188555050505b50505050505056fea264697066735822122007cea60d047ed38d6248625ff6b22a996fe4ff598b2f1e7ec923f61e68dde85264736f6c634300080f0033",
  "immutableReferences": {},
  "source": "pragma solidity >=0.5.0;\r\n\r\ncontract Election{\r\n    // model a condidate \r\n    struct Candidate{\r\n      uint id;\r\n      string name;\r\n      uint age;\r\n      string party;\r\n      string qualification;\r\n      uint voteCount;\r\n      string ipfsHash;\r\n    }\r\n    struct Voter{\r\n      address uid;\r\n      string aadhar;\r\n      string password;\r\n      bool verified;\r\n    }\r\n    //Registered voters\r\n    mapping(address => Voter) public register;\r\n    mapping(uint => Voter) public registertemp;\r\n    mapping(address => uint) public a2id;\r\n    // store accounts that have voted\r\n    mapping(address => bool) public voters;\r\n   // store a candiate \r\n   // fetch candidate \r\n    mapping(uint => Candidate) public candidates;\r\n    // store candidate count\r\n    uint public candidatesCount=0;\r\n    uint public votersCount=0;\r\n    uint public votedCount=0;\r\n    // Election State\r\n    uint public electionState=1;\r\n    // Admin login\r\n    string private username = \"vedantg68\";\r\n    string private password = \"india\";\r\n    bool public admin = false;\r\n    address public currVoter;\r\n    // constructor() public{\r\n    //   addCandidate(\"candidate 1\",34,\"AAP\",\"Phd\");\r\n    // }\r\n    function reset() public\r\n    {\r\n     \r\n          candidatesCount=0;\r\n          votersCount=0;\r\n          votedCount=0;\r\n          electionState=1;\r\n          admin=false;\r\n     \r\n    }\r\n    function SetVoter(address _address) public\r\n    {\r\n        currVoter = _address;\r\n    }\r\n    function verify(address _address) public\r\n    {\r\n      register[_address].verified = true;\r\n      registertemp[a2id[_address]].verified = true;\r\n    }\r\n    function verifyall() public{\r\n      for(uint i=1;i<=votersCount;i++){\r\n        registertemp[i].verified = true;\r\n        register[registertemp[i].uid].verified = true;\r\n      }\r\n    }\r\n    function getUsername() public returns(string memory status)\r\n    {\r\n      return username;\r\n    }\r\n    function getPassword() public returns(string memory status)\r\n    {\r\n      return password;\r\n    }\r\n    function setAdmin(bool _admin) public{\r\n      admin = _admin;\r\n    }\r\n    function addCandidate (string memory _name,uint _age,string memory _party,string memory _qualification,string memory _image) public returns(string memory status) {\r\n      require(electionState==1);\r\n      candidatesCount++;\r\n      candidates[candidatesCount] = Candidate(candidatesCount,_name,_age,_party,_qualification,0,_image);\r\n      return \"sucess\";\r\n    }\r\n    function registration (address _address,string memory _aadhar,string memory _password) public \r\n    {\r\n      votersCount++;\r\n      a2id[_address] = votersCount;\r\n      registertemp[votersCount] = Voter(_address,_aadhar,_password,false);\r\n      register[_address] = Voter(_address,_aadhar,_password,false);\r\n      \r\n    }\r\n    function changeState(uint _state) public {\r\n      require(_state>electionState);\r\n      electionState = _state;\r\n    }\r\n    function vote(uint _candidateId,address _voter) public {\r\n      // address has not voted before\r\n      require(!voters[_voter]);\r\n      votedCount++;\r\n      // update the voter has voted\r\n      voters[_voter] = true;\r\n      //update the votes of candidate\r\n      candidates[_candidateId].voteCount ++;\r\n    }\r\n\r\n}",
  "sourcePath": "D:\\Blockchain\\election2\\contracts\\Election.sol",
  "compiler": {
    "name": "solc",
    "version": "0.8.15+commit.e14f2714.Emscripten.clang"
  },
  "schemaVersion": "3.4.8",
  "updatedAt": "2022-10-06T10:48:45.190Z",
  "networkType": "ethereum",
  "devdoc": {
    "kind": "dev",
    "methods": {},
    "version": 1
  },
  "userdoc": {
    "kind": "user",
    "methods": {},
    "version": 1
  }
}